{
  "contractName": "Articles",
  "abi": [
    {
      "inputs": [],
      "stateMutability": "nonpayable",
      "type": "constructor"
    },
    {
      "inputs": [
        {
          "internalType": "uint256",
          "name": "",
          "type": "uint256"
        }
      ],
      "name": "article_index",
      "outputs": [
        {
          "internalType": "uint256",
          "name": "",
          "type": "uint256"
        }
      ],
      "stateMutability": "view",
      "type": "function",
      "constant": true
    },
    {
      "inputs": [
        {
          "internalType": "uint256",
          "name": "",
          "type": "uint256"
        }
      ],
      "name": "articles",
      "outputs": [
        {
          "internalType": "address",
          "name": "author",
          "type": "address"
        },
        {
          "internalType": "string",
          "name": "title",
          "type": "string"
        },
        {
          "internalType": "string",
          "name": "content",
          "type": "string"
        },
        {
          "internalType": "uint256",
          "name": "commentCount",
          "type": "uint256"
        }
      ],
      "stateMutability": "view",
      "type": "function",
      "constant": true
    },
    {
      "inputs": [
        {
          "internalType": "uint256",
          "name": "",
          "type": "uint256"
        },
        {
          "internalType": "uint256",
          "name": "",
          "type": "uint256"
        }
      ],
      "name": "comments",
      "outputs": [
        {
          "internalType": "address",
          "name": "commenter",
          "type": "address"
        },
        {
          "internalType": "string",
          "name": "content",
          "type": "string"
        }
      ],
      "stateMutability": "view",
      "type": "function",
      "constant": true
    },
    {
      "inputs": [],
      "name": "lastest_article",
      "outputs": [
        {
          "internalType": "uint256",
          "name": "",
          "type": "uint256"
        }
      ],
      "stateMutability": "view",
      "type": "function",
      "constant": true
    },
    {
      "inputs": [
        {
          "internalType": "string",
          "name": "_title",
          "type": "string"
        },
        {
          "internalType": "string",
          "name": "_content",
          "type": "string"
        }
      ],
      "name": "publishArticle",
      "outputs": [],
      "stateMutability": "nonpayable",
      "type": "function"
    },
    {
      "inputs": [
        {
          "internalType": "uint256",
          "name": "_articleId",
          "type": "uint256"
        },
        {
          "internalType": "string",
          "name": "_content",
          "type": "string"
        }
      ],
      "name": "postComment",
      "outputs": [],
      "stateMutability": "nonpayable",
      "type": "function"
    },
    {
      "inputs": [
        {
          "internalType": "uint256",
          "name": "_articleId",
          "type": "uint256"
        }
      ],
      "name": "getArticle",
      "outputs": [
        {
          "components": [
            {
              "internalType": "address",
              "name": "author",
              "type": "address"
            },
            {
              "internalType": "string",
              "name": "title",
              "type": "string"
            },
            {
              "internalType": "string",
              "name": "content",
              "type": "string"
            },
            {
              "internalType": "uint256",
              "name": "commentCount",
              "type": "uint256"
            }
          ],
          "internalType": "struct Articles.Article",
          "name": "",
          "type": "tuple"
        }
      ],
      "stateMutability": "view",
      "type": "function",
      "constant": true
    },
    {
      "inputs": [],
      "name": "getArticle_index",
      "outputs": [
        {
          "internalType": "uint256[]",
          "name": "",
          "type": "uint256[]"
        }
      ],
      "stateMutability": "view",
      "type": "function",
      "constant": true
    },
    {
      "inputs": [
        {
          "internalType": "uint256",
          "name": "_articleId",
          "type": "uint256"
        },
        {
          "internalType": "uint256",
          "name": "_commentId",
          "type": "uint256"
        }
      ],
      "name": "getComment",
      "outputs": [
        {
          "components": [
            {
              "internalType": "address",
              "name": "commenter",
              "type": "address"
            },
            {
              "internalType": "string",
              "name": "content",
              "type": "string"
            }
          ],
          "internalType": "struct Articles.Comment",
          "name": "",
          "type": "tuple"
        }
      ],
      "stateMutability": "view",
      "type": "function",
      "constant": true
    },
    {
      "inputs": [
        {
          "internalType": "uint256",
          "name": "_articleId",
          "type": "uint256"
        }
      ],
      "name": "getAllComment",
      "outputs": [
        {
          "components": [
            {
              "internalType": "address",
              "name": "commenter",
              "type": "address"
            },
            {
              "internalType": "string",
              "name": "content",
              "type": "string"
            }
          ],
          "internalType": "struct Articles.Comment[]",
          "name": "",
          "type": "tuple[]"
        }
      ],
      "stateMutability": "view",
      "type": "function",
      "constant": true
    }
  ],
  "bytecode": "0x608060405234801561001057600080fd5b50600060038190555061176a806100286000396000f3fe608060405234801561001057600080fd5b506004361061009e5760003560e01c806395961f051161006657806395961f051461016f578063bd85d8671461018b578063ce010ffc146101bb578063edcfafe6146101d7578063fc6c776f1461020a5761009e565b80631721cfa1146100a35780634591f2ef146100c157806348892753146100df5780636923feaf1461010f578063739d00961461013f575b600080fd5b6100ab61023b565b6040516100b89190611415565b60405180910390f35b6100c9610241565b6040516100d6919061136f565b60405180910390f35b6100f960048036038101906100f49190610f7d565b610299565b60405161010691906113f3565b60405180910390f35b61012960048036038101906101249190610f00565b610497565b6040516101369190611415565b60405180910390f35b61015960048036038101906101549190610f00565b6104bb565b604051610166919061134d565b60405180910390f35b61018960048036038101906101849190610e94565b61065f565b005b6101a560048036038101906101a09190610f00565b61077d565b6040516101b291906113d1565b60405180910390f35b6101d560048036038101906101d09190610f29565b610977565b005b6101f160048036038101906101ec9190610f00565b610abd565b60405161020194939291906112fa565b60405180910390f35b610224600480360381019061021f9190610f7d565b610c1d565b6040516102329291906112ca565b60405180910390f35b60035481565b6060600280548060200260200160405190810160405280929190818152602001828054801561028f57602002820191906000526020600020905b81548152602001906001019080831161027b575b5050505050905090565b6102a1610d06565b60035483106102e5576040517f08c379a00000000000000000000000000000000000000000000000000000000081526004016102dc906113b1565b60405180910390fd5b6001600084815260200190815260200160002080549050821061033d576040517f08c379a000000000000000000000000000000000000000000000000000000000815260040161033490611391565b60405180910390fd5b600060016000858152602001908152602001600020838154811061038a577f4e487b7100000000000000000000000000000000000000000000000000000000600052603260045260246000fd5b90600052602060002090600202016040518060400160405290816000820160009054906101000a900473ffffffffffffffffffffffffffffffffffffffff1673ffffffffffffffffffffffffffffffffffffffff1673ffffffffffffffffffffffffffffffffffffffff16815260200160018201805461040990611604565b80601f016020809104026020016040519081016040528092919081815260200182805461043590611604565b80156104825780601f1061045757610100808354040283529160200191610482565b820191906000526020600020905b81548152906001019060200180831161046557829003601f168201915b50505050508152505090508091505092915050565b600281815481106104a757600080fd5b906000526020600020016000915090505481565b60606003548210610501576040517f08c379a00000000000000000000000000000000000000000000000000000000081526004016104f8906113b1565b60405180910390fd5b600060016000848152602001908152602001600020805480602002602001604051908101604052809291908181526020016000905b8282101561065057838290600052602060002090600202016040518060400160405290816000820160009054906101000a900473ffffffffffffffffffffffffffffffffffffffff1673ffffffffffffffffffffffffffffffffffffffff1673ffffffffffffffffffffffffffffffffffffffff1681526020016001820180546105bf90611604565b80601f01602080910402602001604051908101604052809291908181526020018280546105eb90611604565b80156106385780601f1061060d57610100808354040283529160200191610638565b820191906000526020600020905b81548152906001019060200180831161061b57829003601f168201915b50505050508152505081526020019060010190610536565b50505050905080915050919050565b60405180608001604052803373ffffffffffffffffffffffffffffffffffffffff1681526020018381526020018281526020016000815250600080600354815260200190815260200160002060008201518160000160006101000a81548173ffffffffffffffffffffffffffffffffffffffff021916908373ffffffffffffffffffffffffffffffffffffffff160217905550602082015181600101908051906020019061070e929190610d36565b50604082015181600201908051906020019061072b929190610d36565b50606082015181600301559050506002600354908060018154018082558091505060019003906000526020600020016000909190919091505560016003546107739190611530565b6003819055505050565b610785610dbc565b60035482106107c9576040517f08c379a00000000000000000000000000000000000000000000000000000000081526004016107c0906113b1565b60405180910390fd5b60008060008481526020019081526020016000206040518060800160405290816000820160009054906101000a900473ffffffffffffffffffffffffffffffffffffffff1673ffffffffffffffffffffffffffffffffffffffff1673ffffffffffffffffffffffffffffffffffffffff16815260200160018201805461084e90611604565b80601f016020809104026020016040519081016040528092919081815260200182805461087a90611604565b80156108c75780601f1061089c576101008083540402835291602001916108c7565b820191906000526020600020905b8154815290600101906020018083116108aa57829003601f168201915b505050505081526020016002820180546108e090611604565b80601f016020809104026020016040519081016040528092919081815260200182805461090c90611604565b80156109595780601f1061092e57610100808354040283529160200191610959565b820191906000526020600020905b81548152906001019060200180831161093c57829003601f168201915b50505050508152602001600382015481525050905080915050919050565b60035482106109bb576040517f08c379a00000000000000000000000000000000000000000000000000000000081526004016109b2906113b1565b60405180910390fd5b600060405180604001604052803373ffffffffffffffffffffffffffffffffffffffff1681526020018381525090506001600084815260200190815260200160002081908060018154018082558091505060019003906000526020600020906002020160009091909190915060008201518160000160006101000a81548173ffffffffffffffffffffffffffffffffffffffff021916908373ffffffffffffffffffffffffffffffffffffffff1602179055506020820151816001019080519060200190610a8a929190610d36565b5050506000808481526020019081526020016000206003016000815480929190610ab390611636565b9190505550505050565b60006020528060005260406000206000915090508060000160009054906101000a900473ffffffffffffffffffffffffffffffffffffffff1690806001018054610b0690611604565b80601f0160208091040260200160405190810160405280929190818152602001828054610b3290611604565b8015610b7f5780601f10610b5457610100808354040283529160200191610b7f565b820191906000526020600020905b815481529060010190602001808311610b6257829003601f168201915b505050505090806002018054610b9490611604565b80601f0160208091040260200160405190810160405280929190818152602001828054610bc090611604565b8015610c0d5780601f10610be257610100808354040283529160200191610c0d565b820191906000526020600020905b815481529060010190602001808311610bf057829003601f168201915b5050505050908060030154905084565b60016020528160005260406000208181548110610c3957600080fd5b9060005260206000209060020201600091509150508060000160009054906101000a900473ffffffffffffffffffffffffffffffffffffffff1690806001018054610c8390611604565b80601f0160208091040260200160405190810160405280929190818152602001828054610caf90611604565b8015610cfc5780601f10610cd157610100808354040283529160200191610cfc565b820191906000526020600020905b815481529060010190602001808311610cdf57829003601f168201915b5050505050905082565b6040518060400160405280600073ffffffffffffffffffffffffffffffffffffffff168152602001606081525090565b828054610d4290611604565b90600052602060002090601f016020900481019282610d645760008555610dab565b82601f10610d7d57805160ff1916838001178555610dab565b82800160010185558215610dab579182015b82811115610daa578251825591602001919060010190610d8f565b5b509050610db89190610dfa565b5090565b6040518060800160405280600073ffffffffffffffffffffffffffffffffffffffff1681526020016060815260200160608152602001600081525090565b5b80821115610e13576000816000905550600101610dfb565b5090565b6000610e2a610e2584611461565b611430565b905082815260208101848484011115610e4257600080fd5b610e4d8482856115c2565b509392505050565b600082601f830112610e6657600080fd5b8135610e76848260208601610e17565b91505092915050565b600081359050610e8e8161171d565b92915050565b60008060408385031215610ea757600080fd5b600083013567ffffffffffffffff811115610ec157600080fd5b610ecd85828601610e55565b925050602083013567ffffffffffffffff811115610eea57600080fd5b610ef685828601610e55565b9150509250929050565b600060208284031215610f1257600080fd5b6000610f2084828501610e7f565b91505092915050565b60008060408385031215610f3c57600080fd5b6000610f4a85828601610e7f565b925050602083013567ffffffffffffffff811115610f6757600080fd5b610f7385828601610e55565b9150509250929050565b60008060408385031215610f9057600080fd5b6000610f9e85828601610e7f565b9250506020610faf85828601610e7f565b9150509250929050565b6000610fc58383611232565b905092915050565b6000610fd983836112ac565b60208301905092915050565b610fee81611586565b82525050565b610ffd81611586565b82525050565b600061100e826114b1565b61101881856114ec565b93508360208202850161102a85611491565b8060005b8581101561106657848403895281516110478582610fb9565b9450611052836114d2565b925060208a0199505060018101905061102e565b50829750879550505050505092915050565b6000611083826114bc565b61108d81856114fd565b9350611098836114a1565b8060005b838110156110c95781516110b08882610fcd565b97506110bb836114df565b92505060018101905061109c565b5085935050505092915050565b60006110e1826114c7565b6110eb818561150e565b93506110fb8185602086016115d1565b6111048161170c565b840191505092915050565b600061111a826114c7565b611124818561151f565b93506111348185602086016115d1565b61113d8161170c565b840191505092915050565b600061115560128361151f565b91507f496e76616c696420636f6d6d656e7420494400000000000000000000000000006000830152602082019050919050565b600061119560128361151f565b91507f496e76616c69642061727469636c6520494400000000000000000000000000006000830152602082019050919050565b60006080830160008301516111e06000860182610fe5565b50602083015184820360208601526111f882826110d6565b9150506040830151848203604086015261121282826110d6565b915050606083015161122760608601826112ac565b508091505092915050565b600060408301600083015161124a6000860182610fe5565b506020830151848203602086015261126282826110d6565b9150508091505092915050565b60006040830160008301516112876000860182610fe5565b506020830151848203602086015261129f82826110d6565b9150508091505092915050565b6112b5816115b8565b82525050565b6112c4816115b8565b82525050565b60006040820190506112df6000830185610ff4565b81810360208301526112f1818461110f565b90509392505050565b600060808201905061130f6000830187610ff4565b8181036020830152611321818661110f565b90508181036040830152611335818561110f565b905061134460608301846112bb565b95945050505050565b600060208201905081810360008301526113678184611003565b905092915050565b600060208201905081810360008301526113898184611078565b905092915050565b600060208201905081810360008301526113aa81611148565b9050919050565b600060208201905081810360008301526113ca81611188565b9050919050565b600060208201905081810360008301526113eb81846111c8565b905092915050565b6000602082019050818103600083015261140d818461126f565b905092915050565b600060208201905061142a60008301846112bb565b92915050565b6000604051905081810181811067ffffffffffffffff82111715611457576114566116dd565b5b8060405250919050565b600067ffffffffffffffff82111561147c5761147b6116dd565b5b601f19601f8301169050602081019050919050565b6000819050602082019050919050565b6000819050602082019050919050565b600081519050919050565b600081519050919050565b600081519050919050565b6000602082019050919050565b6000602082019050919050565b600082825260208201905092915050565b600082825260208201905092915050565b600082825260208201905092915050565b600082825260208201905092915050565b600061153b826115b8565b9150611546836115b8565b9250827fffffffffffffffffffffffffffffffffffffffffffffffffffffffffffffffff0382111561157b5761157a61167f565b5b828201905092915050565b600061159182611598565b9050919050565b600073ffffffffffffffffffffffffffffffffffffffff82169050919050565b6000819050919050565b82818337600083830152505050565b60005b838110156115ef5780820151818401526020810190506115d4565b838111156115fe576000848401525b50505050565b6000600282049050600182168061161c57607f821691505b602082108114156116305761162f6116ae565b5b50919050565b6000611641826115b8565b91507fffffffffffffffffffffffffffffffffffffffffffffffffffffffffffffffff8214156116745761167361167f565b5b600182019050919050565b7f4e487b7100000000000000000000000000000000000000000000000000000000600052601160045260246000fd5b7f4e487b7100000000000000000000000000000000000000000000000000000000600052602260045260246000fd5b7f4e487b7100000000000000000000000000000000000000000000000000000000600052604160045260246000fd5b6000601f19601f8301169050919050565b611726816115b8565b811461173157600080fd5b5056fea264697066735822122094cc26787e9175a603acfbb00880623ddad7fde2e14bb8bbe8c2b4b76aa5426764736f6c63430008000033",
  "immutableReferences": {},
  "source": "// SPDX-License-Identifier: MIT\r\npragma solidity ^0.8.0;\r\n\r\ncontract Articles {\r\n    struct Article {\r\n        address author;\r\n        string title;\r\n        string content;\r\n        uint commentCount;\r\n    }\r\n    \r\n    struct Comment {\r\n        address commenter;\r\n        string content;\r\n    }\r\n    \r\n    constructor(){\r\n        lastest_article = 0;\r\n    }\r\n    \r\n    mapping(uint256 => Article) public articles;\r\n    mapping(uint256 => Comment[]) public comments;\r\n    \r\n    uint[] public article_index;\r\n    uint public lastest_article;\r\n    function publishArticle(string memory _title, string memory _content) public {\r\n        articles[lastest_article] = Article(msg.sender, _title, _content, 0);\r\n        article_index.push(lastest_article);\r\n        lastest_article=lastest_article+1;\r\n    }\r\n    function postComment(uint256 _articleId, string memory _content) public {\r\n        require(_articleId < lastest_article, \"Invalid article ID\");\r\n        Comment memory newComment = Comment(msg.sender, _content);\r\n        comments[_articleId].push(newComment);\r\n        articles[_articleId].commentCount++;\r\n    }\r\n\r\n    function getArticle(uint256 _articleId) public view returns (Article memory) {\r\n        require(_articleId < lastest_article, \"Invalid article ID\");\r\n        Article memory article = articles[_articleId];\r\n        return article;\r\n    }\r\n    \r\n    function getArticle_index() public view returns (uint[] memory) {\r\n        return article_index;\r\n    }\r\n    \r\n    function getComment(uint256 _articleId, uint256 _commentId) public view returns (Comment memory) {\r\n        require(_articleId < lastest_article, \"Invalid article ID\");\r\n        require(_commentId < comments[_articleId].length, \"Invalid comment ID\");\r\n        Comment memory comment = comments[_articleId][_commentId];\r\n        return comment;\r\n    }\r\n\r\n\r\n    function getAllComment(uint256 _articleId) public view returns (Comment[] memory) {\r\n        require(_articleId < lastest_article, \"Invalid article ID\");\r\n        Comment[] memory comment = comments[_articleId];\r\n        return comment;\r\n    }\r\n    \r\n\r\n}\r\n",
  "sourcePath": "D:\\goerli\\blog\\contracts\\Articles.sol",
  "compiler": {
    "name": "solc",
    "version": "0.8.0+commit.c7dfd78e.Emscripten.clang"
  },
  "schemaVersion": "3.4.14",
  "updatedAt": "2023-06-16T16:29:25.157Z",
  "networkType": "ethereum",
  "devdoc": {
    "kind": "dev",
    "methods": {},
    "version": 1
  },
  "userdoc": {
    "kind": "user",
    "methods": {},
    "version": 1
  }
}