{
  "contractName": "Auction",
  "abi": [
    {
      "inputs": [],
      "stateMutability": "nonpayable",
      "type": "constructor"
    },
    {
      "stateMutability": "payable",
      "type": "fallback",
      "payable": true
    },
    {
      "inputs": [
        {
          "internalType": "uint256",
          "name": "",
          "type": "uint256"
        }
      ],
      "name": "array_product",
      "outputs": [
        {
          "internalType": "string",
          "name": "product_name",
          "type": "string"
        },
        {
          "internalType": "string",
          "name": "product_introduce",
          "type": "string"
        },
        {
          "internalType": "uint256",
          "name": "product_price",
          "type": "uint256"
        },
        {
          "internalType": "address",
          "name": "owner",
          "type": "address"
        },
        {
          "internalType": "uint256",
          "name": "index",
          "type": "uint256"
        }
      ],
      "stateMutability": "view",
      "type": "function",
      "constant": true
    },
    {
      "inputs": [
        {
          "internalType": "address",
          "name": "",
          "type": "address"
        },
        {
          "internalType": "uint256",
          "name": "",
          "type": "uint256"
        }
      ],
      "name": "mapproduct",
      "outputs": [
        {
          "internalType": "string",
          "name": "product_name",
          "type": "string"
        },
        {
          "internalType": "string",
          "name": "product_introduce",
          "type": "string"
        },
        {
          "internalType": "uint256",
          "name": "product_price",
          "type": "uint256"
        },
        {
          "internalType": "address",
          "name": "owner",
          "type": "address"
        },
        {
          "internalType": "uint256",
          "name": "index",
          "type": "uint256"
        }
      ],
      "stateMutability": "view",
      "type": "function",
      "constant": true
    },
    {
      "stateMutability": "payable",
      "type": "receive",
      "payable": true
    },
    {
      "inputs": [
        {
          "internalType": "uint256",
          "name": "_index",
          "type": "uint256"
        }
      ],
      "name": "GetProduct",
      "outputs": [
        {
          "components": [
            {
              "internalType": "string",
              "name": "product_name",
              "type": "string"
            },
            {
              "internalType": "string",
              "name": "product_introduce",
              "type": "string"
            },
            {
              "internalType": "uint256",
              "name": "product_price",
              "type": "uint256"
            },
            {
              "internalType": "address",
              "name": "owner",
              "type": "address"
            },
            {
              "internalType": "uint256",
              "name": "index",
              "type": "uint256"
            }
          ],
          "internalType": "struct Auction.Product",
          "name": "",
          "type": "tuple"
        }
      ],
      "stateMutability": "view",
      "type": "function",
      "constant": true
    },
    {
      "inputs": [],
      "name": "Get_array_product",
      "outputs": [
        {
          "components": [
            {
              "internalType": "string",
              "name": "product_name",
              "type": "string"
            },
            {
              "internalType": "string",
              "name": "product_introduce",
              "type": "string"
            },
            {
              "internalType": "uint256",
              "name": "product_price",
              "type": "uint256"
            },
            {
              "internalType": "address",
              "name": "owner",
              "type": "address"
            },
            {
              "internalType": "uint256",
              "name": "index",
              "type": "uint256"
            }
          ],
          "internalType": "struct Auction.Product[]",
          "name": "",
          "type": "tuple[]"
        }
      ],
      "stateMutability": "view",
      "type": "function",
      "constant": true
    },
    {
      "inputs": [
        {
          "internalType": "string",
          "name": "_name",
          "type": "string"
        },
        {
          "internalType": "string",
          "name": "_introduce",
          "type": "string"
        },
        {
          "internalType": "uint256",
          "name": "_price",
          "type": "uint256"
        }
      ],
      "name": "Post",
      "outputs": [],
      "stateMutability": "nonpayable",
      "type": "function"
    },
    {
      "inputs": [
        {
          "internalType": "uint256",
          "name": "_index",
          "type": "uint256"
        }
      ],
      "name": "Buy",
      "outputs": [],
      "stateMutability": "payable",
      "type": "function",
      "payable": true
    },
    {
      "inputs": [],
      "name": "withdraw",
      "outputs": [],
      "stateMutability": "payable",
      "type": "function",
      "payable": true
    }
  ],
  "bytecode": "0x608060405234801561001057600080fd5b5033600260006101000a81548173ffffffffffffffffffffffffffffffffffffffff021916908373ffffffffffffffffffffffffffffffffffffffff160217905550611cf5806100616000396000f3fe6080604052600436106100745760003560e01c8063a4b8ca691161004e578063a4b8ca69146100e4578063aa659a431461010d578063d2862bd81461014e578063dee4bb651461018b5761007b565b80633ccfd60b1461007d5780633e3282181461008757806340a3fa42146100a35761007b565b3661007b57005b005b6100856101b6565b005b6100a1600480360381019061009c9190611590565b610221565b005b3480156100af57600080fd5b506100ca60048036038101906100c59190611590565b6109aa565b6040516100db95949392919061184c565b60405180910390f35b3480156100f057600080fd5b5061010b60048036038101906101069190611511565b610b20565b005b34801561011957600080fd5b50610134600480360381019061012f91906114d5565b610d2e565b60405161014595949392919061184c565b60405180910390f35b34801561015a57600080fd5b5061017560048036038101906101709190611590565b610eb1565b60405161018291906118cd565b60405180910390f35b34801561019757600080fd5b506101a06110a1565b6040516101ad919061182a565b60405180910390f35b600260009054906101000a900473ffffffffffffffffffffffffffffffffffffffff1673ffffffffffffffffffffffffffffffffffffffff166108fc479081150290604051600060405180830381858888f1935050505015801561021e573d6000803e3d6000fd5b50565b60006001828154811061025d577f4e487b7100000000000000000000000000000000000000000000000000000000600052603260045260246000fd5b90600052602060002090600502016040518060a001604052908160008201805461028690611b49565b80601f01602080910402602001604051908101604052809291908181526020018280546102b290611b49565b80156102ff5780601f106102d4576101008083540402835291602001916102ff565b820191906000526020600020905b8154815290600101906020018083116102e257829003601f168201915b5050505050815260200160018201805461031890611b49565b80601f016020809104026020016040519081016040528092919081815260200182805461034490611b49565b80156103915780601f1061036657610100808354040283529160200191610391565b820191906000526020600020905b81548152906001019060200180831161037457829003601f168201915b50505050508152602001600282015481526020016003820160009054906101000a900473ffffffffffffffffffffffffffffffffffffffff1673ffffffffffffffffffffffffffffffffffffffff1673ffffffffffffffffffffffffffffffffffffffff1681526020016004820154815250509050806040015134101561044d576040517f08c379a0000000000000000000000000000000000000000000000000000000008152600401610444906118ad565b60405180910390fd5b60008160600151905060008060008373ffffffffffffffffffffffffffffffffffffffff1673ffffffffffffffffffffffffffffffffffffffff16815260200190815260200160002080549050905033836060019073ffffffffffffffffffffffffffffffffffffffff16908173ffffffffffffffffffffffffffffffffffffffff1681525050336001846080015181548110610513577f4e487b7100000000000000000000000000000000000000000000000000000000600052603260045260246000fd5b906000526020600020906005020160030160006101000a81548173ffffffffffffffffffffffffffffffffffffffff021916908373ffffffffffffffffffffffffffffffffffffffff1602179055506000803373ffffffffffffffffffffffffffffffffffffffff1673ffffffffffffffffffffffffffffffffffffffff16815260200190815260200160002083908060018154018082558091505060019003906000526020600020906005020160009091909190915060008201518160000190805190602001906105e692919061128e565b50602082015181600101908051906020019061060392919061128e565b506040820151816002015560608201518160030160006101000a81548173ffffffffffffffffffffffffffffffffffffffff021916908373ffffffffffffffffffffffffffffffffffffffff16021790555060808201518160040155505060008490505b6001826106749190611a97565b811015610860576000808473ffffffffffffffffffffffffffffffffffffffff1673ffffffffffffffffffffffffffffffffffffffff1681526020019081526020016000206001826106c691906119b6565b815481106106fd577f4e487b7100000000000000000000000000000000000000000000000000000000600052603260045260246000fd5b90600052602060002090600502016000808573ffffffffffffffffffffffffffffffffffffffff1673ffffffffffffffffffffffffffffffffffffffff1681526020019081526020016000208281548110610781577f4e487b7100000000000000000000000000000000000000000000000000000000600052603260045260246000fd5b906000526020600020906005020160008201816000019080546107a390611b49565b6107ae929190611314565b5060018201816001019080546107c390611b49565b6107ce929190611314565b50600282015481600201556003820160009054906101000a900473ffffffffffffffffffffffffffffffffffffffff168160030160006101000a81548173ffffffffffffffffffffffffffffffffffffffff021916908373ffffffffffffffffffffffffffffffffffffffff16021790555060048201548160040155905050808061085890611b7b565b915050610667565b506000808373ffffffffffffffffffffffffffffffffffffffff1673ffffffffffffffffffffffffffffffffffffffff1681526020019081526020016000208054806108d5577f4e487b7100000000000000000000000000000000000000000000000000000000600052603160045260246000fd5b6001900381819060005260206000209060050201600080820160006108fa91906113a1565b60018201600061090a91906113a1565b60028201600090556003820160006101000a81549073ffffffffffffffffffffffffffffffffffffffff02191690556004820160009055505090558173ffffffffffffffffffffffffffffffffffffffff166108fc606460623461096e9190611a3d565b6109789190611a0c565b9081150290604051600060405180830381858888f193505050501580156109a3573d6000803e3d6000fd5b5050505050565b600181815481106109ba57600080fd5b90600052602060002090600502016000915090508060000180546109dd90611b49565b80601f0160208091040260200160405190810160405280929190818152602001828054610a0990611b49565b8015610a565780601f10610a2b57610100808354040283529160200191610a56565b820191906000526020600020905b815481529060010190602001808311610a3957829003601f168201915b505050505090806001018054610a6b90611b49565b80601f0160208091040260200160405190810160405280929190818152602001828054610a9790611b49565b8015610ae45780601f10610ab957610100808354040283529160200191610ae4565b820191906000526020600020905b815481529060010190602001808311610ac757829003601f168201915b5050505050908060020154908060030160009054906101000a900473ffffffffffffffffffffffffffffffffffffffff16908060040154905085565b60006040518060a001604052808581526020018481526020018381526020013373ffffffffffffffffffffffffffffffffffffffff16815260200160018054905081525090506000803373ffffffffffffffffffffffffffffffffffffffff1673ffffffffffffffffffffffffffffffffffffffff1681526020019081526020016000208190806001815401808255809150506001900390600052602060002090600502016000909190919091506000820151816000019080519060200190610bea92919061128e565b506020820151816001019080519060200190610c0792919061128e565b506040820151816002015560608201518160030160006101000a81548173ffffffffffffffffffffffffffffffffffffffff021916908373ffffffffffffffffffffffffffffffffffffffff16021790555060808201518160040155505060018190806001815401808255809150506001900390600052602060002090600502016000909190919091506000820151816000019080519060200190610cad92919061128e565b506020820151816001019080519060200190610cca92919061128e565b506040820151816002015560608201518160030160006101000a81548173ffffffffffffffffffffffffffffffffffffffff021916908373ffffffffffffffffffffffffffffffffffffffff16021790555060808201518160040155505050505050565b60006020528160005260406000208181548110610d4a57600080fd5b906000526020600020906005020160009150915050806000018054610d6e90611b49565b80601f0160208091040260200160405190810160405280929190818152602001828054610d9a90611b49565b8015610de75780601f10610dbc57610100808354040283529160200191610de7565b820191906000526020600020905b815481529060010190602001808311610dca57829003601f168201915b505050505090806001018054610dfc90611b49565b80601f0160208091040260200160405190810160405280929190818152602001828054610e2890611b49565b8015610e755780601f10610e4a57610100808354040283529160200191610e75565b820191906000526020600020905b815481529060010190602001808311610e5857829003601f168201915b5050505050908060020154908060030160009054906101000a900473ffffffffffffffffffffffffffffffffffffffff16908060040154905085565b610eb96113e1565b60018281548110610ef3577f4e487b7100000000000000000000000000000000000000000000000000000000600052603260045260246000fd5b90600052602060002090600502016040518060a0016040529081600082018054610f1c90611b49565b80601f0160208091040260200160405190810160405280929190818152602001828054610f4890611b49565b8015610f955780601f10610f6a57610100808354040283529160200191610f95565b820191906000526020600020905b815481529060010190602001808311610f7857829003601f168201915b50505050508152602001600182018054610fae90611b49565b80601f0160208091040260200160405190810160405280929190818152602001828054610fda90611b49565b80156110275780601f10610ffc57610100808354040283529160200191611027565b820191906000526020600020905b81548152906001019060200180831161100a57829003601f168201915b50505050508152602001600282015481526020016003820160009054906101000a900473ffffffffffffffffffffffffffffffffffffffff1673ffffffffffffffffffffffffffffffffffffffff1673ffffffffffffffffffffffffffffffffffffffff1681526020016004820154815250509050919050565b60606001805480602002602001604051908101604052809291908181526020016000905b8282101561128557838290600052602060002090600502016040518060a00160405290816000820180546110f890611b49565b80601f016020809104026020016040519081016040528092919081815260200182805461112490611b49565b80156111715780601f1061114657610100808354040283529160200191611171565b820191906000526020600020905b81548152906001019060200180831161115457829003601f168201915b5050505050815260200160018201805461118a90611b49565b80601f01602080910402602001604051908101604052809291908181526020018280546111b690611b49565b80156112035780601f106111d857610100808354040283529160200191611203565b820191906000526020600020905b8154815290600101906020018083116111e657829003601f168201915b50505050508152602001600282015481526020016003820160009054906101000a900473ffffffffffffffffffffffffffffffffffffffff1673ffffffffffffffffffffffffffffffffffffffff1673ffffffffffffffffffffffffffffffffffffffff168152602001600482015481525050815260200190600101906110c5565b50505050905090565b82805461129a90611b49565b90600052602060002090601f0160209004810192826112bc5760008555611303565b82601f106112d557805160ff1916838001178555611303565b82800160010185558215611303579182015b828111156113025782518255916020019190600101906112e7565b5b5090506113109190611426565b5090565b82805461132090611b49565b90600052602060002090601f0160209004810192826113425760008555611390565b82601f106113535780548555611390565b8280016001018555821561139057600052602060002091601f016020900482015b8281111561138f578254825591600101919060010190611374565b5b50905061139d9190611426565b5090565b5080546113ad90611b49565b6000825580601f106113bf57506113de565b601f0160209004906000526020600020908101906113dd9190611426565b5b50565b6040518060a00160405280606081526020016060815260200160008152602001600073ffffffffffffffffffffffffffffffffffffffff168152602001600081525090565b5b8082111561143f576000816000905550600101611427565b5090565b600061145661145184611920565b6118ef565b90508281526020810184848401111561146e57600080fd5b611479848285611b07565b509392505050565b60008135905061149081611c91565b92915050565b600082601f8301126114a757600080fd5b81356114b7848260208601611443565b91505092915050565b6000813590506114cf81611ca8565b92915050565b600080604083850312156114e857600080fd5b60006114f685828601611481565b9250506020611507858286016114c0565b9150509250929050565b60008060006060848603121561152657600080fd5b600084013567ffffffffffffffff81111561154057600080fd5b61154c86828701611496565b935050602084013567ffffffffffffffff81111561156957600080fd5b61157586828701611496565b9250506040611586868287016114c0565b9150509250925092565b6000602082840312156115a257600080fd5b60006115b0848285016114c0565b91505092915050565b60006115c58383611712565b905092915050565b6115d681611acb565b82525050565b6115e581611acb565b82525050565b60006115f682611960565b6116008185611983565b93508360208202850161161285611950565b8060005b8581101561164e578484038952815161162f85826115b9565b945061163a83611976565b925060208a01995050600181019050611616565b50829750879550505050505092915050565b600061166b8261196b565b6116758185611994565b9350611685818560208601611b16565b61168e81611c80565b840191505092915050565b60006116a48261196b565b6116ae81856119a5565b93506116be818560208601611b16565b6116c781611c80565b840191505092915050565b60006116df6019836119a5565b91507f76616c7565203c2070726f647563745f2e5f70726963652021000000000000006000830152602082019050919050565b600060a083016000830151848203600086015261172f8282611660565b915050602083015184820360208601526117498282611660565b915050604083015161175e604086018261180c565b50606083015161177160608601826115cd565b506080830151611784608086018261180c565b508091505092915050565b600060a08301600083015184820360008601526117ac8282611660565b915050602083015184820360208601526117c68282611660565b91505060408301516117db604086018261180c565b5060608301516117ee60608601826115cd565b506080830151611801608086018261180c565b508091505092915050565b61181581611afd565b82525050565b61182481611afd565b82525050565b6000602082019050818103600083015261184481846115eb565b905092915050565b600060a08201905081810360008301526118668188611699565b9050818103602083015261187a8187611699565b9050611889604083018661181b565b61189660608301856115dc565b6118a3608083018461181b565b9695505050505050565b600060208201905081810360008301526118c6816116d2565b9050919050565b600060208201905081810360008301526118e7818461178f565b905092915050565b6000604051905081810181811067ffffffffffffffff8211171561191657611915611c51565b5b8060405250919050565b600067ffffffffffffffff82111561193b5761193a611c51565b5b601f19601f8301169050602081019050919050565b6000819050602082019050919050565b600081519050919050565b600081519050919050565b6000602082019050919050565b600082825260208201905092915050565b600082825260208201905092915050565b600082825260208201905092915050565b60006119c182611afd565b91506119cc83611afd565b9250827fffffffffffffffffffffffffffffffffffffffffffffffffffffffffffffffff03821115611a0157611a00611bc4565b5b828201905092915050565b6000611a1782611afd565b9150611a2283611afd565b925082611a3257611a31611bf3565b5b828204905092915050565b6000611a4882611afd565b9150611a5383611afd565b9250817fffffffffffffffffffffffffffffffffffffffffffffffffffffffffffffffff0483118215151615611a8c57611a8b611bc4565b5b828202905092915050565b6000611aa282611afd565b9150611aad83611afd565b925082821015611ac057611abf611bc4565b5b828203905092915050565b6000611ad682611add565b9050919050565b600073ffffffffffffffffffffffffffffffffffffffff82169050919050565b6000819050919050565b82818337600083830152505050565b60005b83811015611b34578082015181840152602081019050611b19565b83811115611b43576000848401525b50505050565b60006002820490506001821680611b6157607f821691505b60208210811415611b7557611b74611c22565b5b50919050565b6000611b8682611afd565b91507fffffffffffffffffffffffffffffffffffffffffffffffffffffffffffffffff821415611bb957611bb8611bc4565b5b600182019050919050565b7f4e487b7100000000000000000000000000000000000000000000000000000000600052601160045260246000fd5b7f4e487b7100000000000000000000000000000000000000000000000000000000600052601260045260246000fd5b7f4e487b7100000000000000000000000000000000000000000000000000000000600052602260045260246000fd5b7f4e487b7100000000000000000000000000000000000000000000000000000000600052604160045260246000fd5b6000601f19601f8301169050919050565b611c9a81611acb565b8114611ca557600080fd5b50565b611cb181611afd565b8114611cbc57600080fd5b5056fea2646970667358221220c1a6d996402204a2ea48f34a60a20ae904adfe33f45499b3c00e004f417fefce64736f6c63430008000033",
  "immutableReferences": {},
  "source": "// SPDX-License-Identifier: MIT\r\npragma solidity ^0.8.0;\r\n\r\ncontract Auction{\r\n        fallback() external payable {} //\r\n        receive() external payable {}\r\n\r\n        mapping(address => Product[]) public mapproduct;\r\n        Product[] public array_product;\r\n\r\n        struct Product {\r\n            string product_name;\r\n            string product_introduce;\r\n            uint product_price;\r\n            address owner;\r\n            uint index;\r\n        }\r\n        address payable ADMIN;\r\n        constructor(){\r\n            ADMIN = payable(msg.sender);\r\n        }\r\n        function GetProduct(uint _index) view external returns(Product memory){\r\n            return array_product[_index];\r\n        }\r\n        function Get_array_product() view external returns(Product[] memory){\r\n            return array_product;\r\n        }\r\n        //PO\r\n        function Post(string memory _name,string memory _introduce,uint _price) external{\r\n            Product memory product_ = Product({\r\n                product_name : _name,\r\n                product_introduce : _introduce,\r\n                product_price : _price,\r\n                owner : msg.sender,\r\n                index : array_product.length\r\n             });\r\n             mapproduct[msg.sender].push(product_);\r\n             array_product.push(product_);\r\n        }\r\n\r\n        //\r\n        function Buy(uint _index) external payable{\r\n            //\r\n            Product memory product_ = array_product[_index];\r\n            //\r\n            require(msg.value >= product_.product_price,\"value < product_._price !\");\r\n\r\n            //\r\n            address payable seller = payable(product_.owner);\r\n            uint seller_arr_len = mapproduct[seller].length;\r\n\r\n            //()\r\n             product_.owner = msg.sender;\r\n             array_product[product_.index].owner = msg.sender;\r\n             mapproduct[msg.sender].push(product_);\r\n\r\n\r\n            //\r\n            //pop_index\r\n            for(uint i=_index; i < seller_arr_len -1 ;i++){\r\n                mapproduct[seller][i] = mapproduct[seller][i+1];\r\n            }\r\n            mapproduct[seller].pop();\r\n\r\n\r\n            //ETH2%\r\n            seller.transfer((msg.value*98)/100);\r\n        }\r\n\r\n        function withdraw() public payable{\r\n            ADMIN.transfer(address(this).balance);\r\n        }\r\n}",
  "sourcePath": "D:\\goerli\\blog\\contracts\\Auction.sol",
  "compiler": {
    "name": "solc",
    "version": "0.8.0+commit.c7dfd78e.Emscripten.clang"
  },
  "schemaVersion": "3.4.14",
  "updatedAt": "2023-06-16T16:29:25.173Z",
  "networkType": "ethereum",
  "devdoc": {
    "kind": "dev",
    "methods": {},
    "version": 1
  },
  "userdoc": {
    "kind": "user",
    "methods": {},
    "version": 1
  }
}