{
  "contractName": "Perssist",
  "abi": [
    {
      "anonymous": false,
      "inputs": [
        {
          "indexed": false,
          "internalType": "uint256",
          "name": "fileId",
          "type": "uint256"
        },
        {
          "indexed": false,
          "internalType": "string",
          "name": "filePath",
          "type": "string"
        },
        {
          "indexed": false,
          "internalType": "uint256",
          "name": "fileSize",
          "type": "uint256"
        },
        {
          "indexed": false,
          "internalType": "string",
          "name": "fileType",
          "type": "string"
        },
        {
          "indexed": false,
          "internalType": "string",
          "name": "fileName",
          "type": "string"
        },
        {
          "indexed": false,
          "internalType": "address payable",
          "name": "uploader",
          "type": "address"
        }
      ],
      "name": "FileUploaded",
      "type": "event"
    },
    {
      "inputs": [],
      "name": "fileCount",
      "outputs": [
        {
          "internalType": "uint256",
          "name": "",
          "type": "uint256"
        }
      ],
      "stateMutability": "view",
      "type": "function",
      "constant": true
    },
    {
      "inputs": [
        {
          "internalType": "uint256",
          "name": "",
          "type": "uint256"
        }
      ],
      "name": "files",
      "outputs": [
        {
          "internalType": "uint256",
          "name": "fileId",
          "type": "uint256"
        },
        {
          "internalType": "string",
          "name": "filePath",
          "type": "string"
        },
        {
          "internalType": "uint256",
          "name": "fileSize",
          "type": "uint256"
        },
        {
          "internalType": "string",
          "name": "fileType",
          "type": "string"
        },
        {
          "internalType": "string",
          "name": "fileName",
          "type": "string"
        },
        {
          "internalType": "address payable",
          "name": "uploader",
          "type": "address"
        }
      ],
      "stateMutability": "view",
      "type": "function",
      "constant": true
    },
    {
      "inputs": [
        {
          "internalType": "uint256",
          "name": "",
          "type": "uint256"
        }
      ],
      "name": "index",
      "outputs": [
        {
          "internalType": "uint256",
          "name": "",
          "type": "uint256"
        }
      ],
      "stateMutability": "view",
      "type": "function",
      "constant": true
    },
    {
      "inputs": [],
      "name": "name",
      "outputs": [
        {
          "internalType": "string",
          "name": "",
          "type": "string"
        }
      ],
      "stateMutability": "view",
      "type": "function",
      "constant": true
    },
    {
      "inputs": [],
      "name": "getindexCounts",
      "outputs": [
        {
          "internalType": "uint256",
          "name": "",
          "type": "uint256"
        }
      ],
      "stateMutability": "view",
      "type": "function",
      "constant": true
    },
    {
      "inputs": [],
      "name": "getindexArray",
      "outputs": [
        {
          "internalType": "uint256[]",
          "name": "",
          "type": "uint256[]"
        }
      ],
      "stateMutability": "view",
      "type": "function",
      "constant": true
    },
    {
      "inputs": [
        {
          "internalType": "string",
          "name": "_filePath",
          "type": "string"
        },
        {
          "internalType": "uint256",
          "name": "_fileSize",
          "type": "uint256"
        },
        {
          "internalType": "string",
          "name": "_fileType",
          "type": "string"
        },
        {
          "internalType": "string",
          "name": "_fileName",
          "type": "string"
        }
      ],
      "name": "uploadFile",
      "outputs": [
        {
          "internalType": "bool",
          "name": "",
          "type": "bool"
        }
      ],
      "stateMutability": "nonpayable",
      "type": "function"
    }
  ],
  "bytecode": "0x60806040526040518060400160405280600881526020017f506572737369737400000000000000000000000000000000000000000000000081525060009080519060200190620000519291906200006b565b5060006001553480156200006457600080fd5b5062000180565b82805462000079906200011b565b90600052602060002090601f0160209004810192826200009d5760008555620000e9565b82601f10620000b857805160ff1916838001178555620000e9565b82800160010185558215620000e9579182015b82811115620000e8578251825591602001919060010190620000cb565b5b509050620000f89190620000fc565b5090565b5b8082111562000117576000816000905550600101620000fd565b5090565b600060028204905060018216806200013457607f821691505b602082108114156200014b576200014a62000151565b5b50919050565b7f4e487b7100000000000000000000000000000000000000000000000000000000600052602260045260246000fd5b610d2880620001906000396000f3fe608060405234801561001057600080fd5b506004361061007d5760003560e01c8063335932fc1161005b578063335932fc146100ee578063439535191461011e578063d63da6cc1461013c578063f4c714b41461015a5761007d565b806306fdde03146100825780631dc2b598146100a057806320f21708146100be575b600080fd5b61008a61018f565b60405161009791906109cf565b60405180910390f35b6100a861021d565b6040516100b591906109f1565b60405180910390f35b6100d860048036038101906100d391906107d3565b61022a565b6040516100e591906109b4565b60405180910390f35b6101086004803603810190610103919061087e565b61043d565b60405161011591906109f1565b60405180910390f35b610126610461565b60405161013391906109f1565b60405180910390f35b610144610467565b6040516101519190610992565b60405180910390f35b610174600480360381019061016f919061087e565b6104bf565b60405161018696959493929190610a0c565b60405180910390f35b6000805461019c90610bc2565b80601f01602080910402602001604051908101604052809291908181526020018280546101c890610bc2565b80156102155780601f106101ea57610100808354040283529160200191610215565b820191906000526020600020905b8154815290600101906020018083116101f857829003601f168201915b505050505081565b6000600380549050905090565b60008085511161023957600080fd5b600083511161024757600080fd5b600082511161025557600080fd5b600073ffffffffffffffffffffffffffffffffffffffff163373ffffffffffffffffffffffffffffffffffffffff16141561028f57600080fd5b6000841161029c57600080fd5b600160008154809291906102af90610bf4565b91905055506040518060c0016040528060015481526020018681526020018581526020018481526020018381526020013373ffffffffffffffffffffffffffffffffffffffff168152506002600060015481526020019081526020016000206000820151816000015560208201518160010190805190602001906103349291906106b3565b5060408201518160020155606082015181600301908051906020019061035b9291906106b3565b5060808201518160040190805190602001906103789291906106b3565b5060a08201518160050160006101000a81548173ffffffffffffffffffffffffffffffffffffffff021916908373ffffffffffffffffffffffffffffffffffffffff160217905550905050600360015490806001815401808255809150506001900390600052602060002001600090919091909150557f18fe72dea7e3849a958d8ddaf36c0a56df898162e5a3253bb944b1d9609b2e5c600154868686863360405161042996959493929190610a0c565b60405180910390a160019050949350505050565b6003818154811061044d57600080fd5b906000526020600020016000915090505481565b60015481565b606060038054806020026020016040519081016040528092919081815260200182805480156104b557602002820191906000526020600020905b8154815260200190600101908083116104a1575b5050505050905090565b60026020528060005260406000206000915090508060000154908060010180546104e890610bc2565b80601f016020809104026020016040519081016040528092919081815260200182805461051490610bc2565b80156105615780601f1061053657610100808354040283529160200191610561565b820191906000526020600020905b81548152906001019060200180831161054457829003601f168201915b50505050509080600201549080600301805461057c90610bc2565b80601f01602080910402602001604051908101604052809291908181526020018280546105a890610bc2565b80156105f55780601f106105ca576101008083540402835291602001916105f5565b820191906000526020600020905b8154815290600101906020018083116105d857829003601f168201915b50505050509080600401805461060a90610bc2565b80601f016020809104026020016040519081016040528092919081815260200182805461063690610bc2565b80156106835780601f1061065857610100808354040283529160200191610683565b820191906000526020600020905b81548152906001019060200180831161066657829003601f168201915b5050505050908060050160009054906101000a900473ffffffffffffffffffffffffffffffffffffffff16905086565b8280546106bf90610bc2565b90600052602060002090601f0160209004810192826106e15760008555610728565b82601f106106fa57805160ff1916838001178555610728565b82800160010185558215610728579182015b8281111561072757825182559160200191906001019061070c565b5b5090506107359190610739565b5090565b5b8082111561075257600081600090555060010161073a565b5090565b600061076961076484610ab3565b610a82565b90508281526020810184848401111561078157600080fd5b61078c848285610b80565b509392505050565b600082601f8301126107a557600080fd5b81356107b5848260208601610756565b91505092915050565b6000813590506107cd81610cdb565b92915050565b600080600080608085870312156107e957600080fd5b600085013567ffffffffffffffff81111561080357600080fd5b61080f87828801610794565b9450506020610820878288016107be565b935050604085013567ffffffffffffffff81111561083d57600080fd5b61084987828801610794565b925050606085013567ffffffffffffffff81111561086657600080fd5b61087287828801610794565b91505092959194509250565b60006020828403121561089057600080fd5b600061089e848285016107be565b91505092915050565b60006108b38383610974565b60208301905092915050565b6108c881610b38565b82525050565b60006108d982610af3565b6108e38185610b16565b93506108ee83610ae3565b8060005b8381101561091f57815161090688826108a7565b975061091183610b09565b9250506001810190506108f2565b5085935050505092915050565b61093581610b4a565b82525050565b600061094682610afe565b6109508185610b27565b9350610960818560208601610b8f565b61096981610cca565b840191505092915050565b61097d81610b76565b82525050565b61098c81610b76565b82525050565b600060208201905081810360008301526109ac81846108ce565b905092915050565b60006020820190506109c9600083018461092c565b92915050565b600060208201905081810360008301526109e9818461093b565b905092915050565b6000602082019050610a066000830184610983565b92915050565b600060c082019050610a216000830189610983565b8181036020830152610a33818861093b565b9050610a426040830187610983565b8181036060830152610a54818661093b565b90508181036080830152610a68818561093b565b9050610a7760a08301846108bf565b979650505050505050565b6000604051905081810181811067ffffffffffffffff82111715610aa957610aa8610c9b565b5b8060405250919050565b600067ffffffffffffffff821115610ace57610acd610c9b565b5b601f19601f8301169050602081019050919050565b6000819050602082019050919050565b600081519050919050565b600081519050919050565b6000602082019050919050565b600082825260208201905092915050565b600082825260208201905092915050565b6000610b4382610b56565b9050919050565b60008115159050919050565b600073ffffffffffffffffffffffffffffffffffffffff82169050919050565b6000819050919050565b82818337600083830152505050565b60005b83811015610bad578082015181840152602081019050610b92565b83811115610bbc576000848401525b50505050565b60006002820490506001821680610bda57607f821691505b60208210811415610bee57610bed610c6c565b5b50919050565b6000610bff82610b76565b91507fffffffffffffffffffffffffffffffffffffffffffffffffffffffffffffffff821415610c3257610c31610c3d565b5b600182019050919050565b7f4e487b7100000000000000000000000000000000000000000000000000000000600052601160045260246000fd5b7f4e487b7100000000000000000000000000000000000000000000000000000000600052602260045260246000fd5b7f4e487b7100000000000000000000000000000000000000000000000000000000600052604160045260246000fd5b6000601f19601f8301169050919050565b610ce481610b76565b8114610cef57600080fd5b5056fea2646970667358221220d40dc9f3d772345af04713b435aeabfa4dfb6bc735d4f90a507aa6f6205b429064736f6c63430008000033",
  "immutableReferences": {},
  "source": "// SPDX-License-Identifier: MIT\r\npragma solidity ^0.8.0;\r\n\r\n\r\ncontract Perssist {\r\n    string public name = \"Perssist\";\r\n    uint256 public fileCount = 0;\r\n    \r\n    // this mapping behaves as a \"catalog\"\r\n    // of files uploaded to the storage, we declare\r\n    // it as public in order to access it directly from the Frontend\r\n    mapping(uint256 => File) public files;\r\n    uint[] public index;\r\n    function getindexCounts() view external returns(uint){\r\n        return index.length;\r\n    }\r\n    function getindexArray() view external returns(uint[] memory){\r\n        return index;\r\n    }\r\n\r\n    struct File {\r\n        uint256 fileId;\r\n        string filePath;\r\n        uint256 fileSize;\r\n        string fileType;\r\n        string fileName;\r\n        address payable uploader;\r\n    }\r\n\r\n    event FileUploaded(\r\n        uint256 fileId,\r\n        string filePath,\r\n        uint256 fileSize,\r\n        string fileType,\r\n        string fileName,\r\n        address payable uploader\r\n    );\r\n    \r\n    // we upload the file metadata\r\n    // to the smart contract files\r\n    // mapping in order to persist\r\n    // the information.\r\n    function uploadFile(\r\n        string memory _filePath,\r\n        uint256 _fileSize,\r\n        string memory _fileType,\r\n        string memory _fileName\r\n    ) public returns(bool){\r\n        require(bytes(_filePath).length > 0);\r\n        require(bytes(_fileType).length > 0);\r\n        require(bytes(_fileName).length > 0);\r\n        require(msg.sender != address(0));\r\n        require(_fileSize > 0);\r\n        \r\n        // since solidity mappings\r\n        // do not have a lenght attribute\r\n        // the simplest way to control the amount \r\n        // of files is using a counter\r\n        fileCount++;\r\n\r\n        files[fileCount] = File(\r\n            fileCount,\r\n            _filePath,\r\n            _fileSize,\r\n            _fileType,\r\n            _fileName,\r\n            payable(msg.sender)\r\n        );\r\n        index.push(fileCount);\r\n        // From the frontend application\r\n        // we can listen the events emitted from\r\n        // the smart contract in order to update the UI.\r\n        emit FileUploaded(\r\n            fileCount,\r\n            _filePath,\r\n            _fileSize,\r\n            _fileType,\r\n            _fileName,\r\n            payable(msg.sender)\r\n        );\r\n        return true;\r\n    }\r\n}",
  "sourcePath": "D:\\goerli\\blog\\contracts\\Perssist.sol",
  "compiler": {
    "name": "solc",
    "version": "0.8.0+commit.c7dfd78e.Emscripten.clang"
  },
  "schemaVersion": "3.4.14",
  "updatedAt": "2023-06-16T16:29:25.194Z",
  "networkType": "ethereum",
  "devdoc": {
    "kind": "dev",
    "methods": {},
    "version": 1
  },
  "userdoc": {
    "kind": "user",
    "methods": {},
    "version": 1
  }
}