{
  "contractName": "Profile",
  "abi": [
    {
      "inputs": [],
      "stateMutability": "nonpayable",
      "type": "constructor"
    },
    {
      "inputs": [
        {
          "internalType": "address",
          "name": "",
          "type": "address"
        }
      ],
      "name": "mapProfiles",
      "outputs": [
        {
          "internalType": "string",
          "name": "username",
          "type": "string"
        },
        {
          "internalType": "string",
          "name": "introduce",
          "type": "string"
        },
        {
          "internalType": "address",
          "name": "useraddress",
          "type": "address"
        }
      ],
      "stateMutability": "view",
      "type": "function",
      "constant": true
    },
    {
      "inputs": [],
      "name": "owner",
      "outputs": [
        {
          "internalType": "address",
          "name": "",
          "type": "address"
        }
      ],
      "stateMutability": "view",
      "type": "function",
      "constant": true
    },
    {
      "inputs": [
        {
          "internalType": "string",
          "name": "_Username",
          "type": "string"
        }
      ],
      "name": "setUsername",
      "outputs": [
        {
          "internalType": "bool",
          "name": "",
          "type": "bool"
        }
      ],
      "stateMutability": "nonpayable",
      "type": "function"
    },
    {
      "inputs": [
        {
          "internalType": "string",
          "name": "_Introduce",
          "type": "string"
        }
      ],
      "name": "setIntroduce",
      "outputs": [
        {
          "internalType": "bool",
          "name": "",
          "type": "bool"
        }
      ],
      "stateMutability": "nonpayable",
      "type": "function"
    },
    {
      "inputs": [],
      "name": "setUseraddress",
      "outputs": [
        {
          "internalType": "bool",
          "name": "",
          "type": "bool"
        }
      ],
      "stateMutability": "nonpayable",
      "type": "function"
    }
  ],
  "bytecode": "0x608060405234801561001057600080fd5b50336000806101000a81548173ffffffffffffffffffffffffffffffffffffffff021916908373ffffffffffffffffffffffffffffffffffffffff16021790555061083d806100606000396000f3fe608060405234801561001057600080fd5b50600436106100575760003560e01c80632fc889b01461005c5780635bcbc6e71461008e578063764b019e146100ac5780638da5cb5b146100dc578063ed59313a146100fa575b600080fd5b61007660048036038101906100719190610516565b61012a565b6040516100859392919061060d565b60405180910390f35b610096610284565b6040516100a391906105f2565b60405180910390f35b6100c660048036038101906100c1919061053f565b61030e565b6040516100d391906105f2565b60405180910390f35b6100e4610370565b6040516100f191906105d7565b60405180910390f35b610114600480360381019061010f919061053f565b610394565b60405161012191906105f2565b60405180910390f35b600160205280600052604060002060009150905080600001805461014d9061074f565b80601f01602080910402602001604051908101604052809291908181526020018280546101799061074f565b80156101c65780601f1061019b576101008083540402835291602001916101c6565b820191906000526020600020905b8154815290600101906020018083116101a957829003601f168201915b5050505050908060010180546101db9061074f565b80601f01602080910402602001604051908101604052809291908181526020018280546102079061074f565b80156102545780601f1061022957610100808354040283529160200191610254565b820191906000526020600020905b81548152906001019060200180831161023757829003601f168201915b5050505050908060020160009054906101000a900473ffffffffffffffffffffffffffffffffffffffff16905083565b600033600160003373ffffffffffffffffffffffffffffffffffffffff1673ffffffffffffffffffffffffffffffffffffffff16815260200190815260200160002060020160006101000a81548173ffffffffffffffffffffffffffffffffffffffff021916908373ffffffffffffffffffffffffffffffffffffffff1602179055506001905090565b600081600160003373ffffffffffffffffffffffffffffffffffffffff1673ffffffffffffffffffffffffffffffffffffffff16815260200190815260200160002060010190805190602001906103669291906103f6565b5060019050919050565b60008054906101000a900473ffffffffffffffffffffffffffffffffffffffff1681565b600081600160003373ffffffffffffffffffffffffffffffffffffffff1673ffffffffffffffffffffffffffffffffffffffff16815260200190815260200160002060000190805190602001906103ec9291906103f6565b5060019050919050565b8280546104029061074f565b90600052602060002090601f016020900481019282610424576000855561046b565b82601f1061043d57805160ff191683800117855561046b565b8280016001018555821561046b579182015b8281111561046a57825182559160200191906001019061044f565b5b509050610478919061047c565b5090565b5b8082111561049557600081600090555060010161047d565b5090565b60006104ac6104a784610683565b610652565b9050828152602081018484840111156104c457600080fd5b6104cf84828561070d565b509392505050565b6000813590506104e6816107f0565b92915050565b600082601f8301126104fd57600080fd5b813561050d848260208601610499565b91505092915050565b60006020828403121561052857600080fd5b6000610536848285016104d7565b91505092915050565b60006020828403121561055157600080fd5b600082013567ffffffffffffffff81111561056b57600080fd5b610577848285016104ec565b91505092915050565b610589816106cf565b82525050565b610598816106e1565b82525050565b60006105a9826106b3565b6105b381856106be565b93506105c381856020860161071c565b6105cc816107df565b840191505092915050565b60006020820190506105ec6000830184610580565b92915050565b6000602082019050610607600083018461058f565b92915050565b60006060820190508181036000830152610627818661059e565b9050818103602083015261063b818561059e565b905061064a6040830184610580565b949350505050565b6000604051905081810181811067ffffffffffffffff82111715610679576106786107b0565b5b8060405250919050565b600067ffffffffffffffff82111561069e5761069d6107b0565b5b601f19601f8301169050602081019050919050565b600081519050919050565b600082825260208201905092915050565b60006106da826106ed565b9050919050565b60008115159050919050565b600073ffffffffffffffffffffffffffffffffffffffff82169050919050565b82818337600083830152505050565b60005b8381101561073a57808201518184015260208101905061071f565b83811115610749576000848401525b50505050565b6000600282049050600182168061076757607f821691505b6020821081141561077b5761077a610781565b5b50919050565b7f4e487b7100000000000000000000000000000000000000000000000000000000600052602260045260246000fd5b7f4e487b7100000000000000000000000000000000000000000000000000000000600052604160045260246000fd5b6000601f19601f8301169050919050565b6107f9816106cf565b811461080457600080fd5b5056fea2646970667358221220684e3e5f4afc6edb14e866cb1ab4f0091dac2d16fdd5fe59214c399728fd449164736f6c63430008000033",
  "immutableReferences": {},
  "source": "// SPDX-License-Identifier: MIT\r\npragma solidity ^0.8.0;\r\n\r\ncontract Profile{\r\n    address public owner;\r\n    constructor(){\r\n        owner = msg.sender;\r\n    }\r\n    struct profile{\r\n        string username;\r\n        string introduce;\r\n        address useraddress; \r\n    }\r\n    mapping(address => profile) public mapProfiles;\r\n    function setUsername(string memory _Username) external returns(bool){\r\n        mapProfiles[msg.sender].username = _Username;\r\n        return true;\r\n    }\r\n    function setIntroduce(string memory _Introduce) external returns(bool){\r\n        mapProfiles[msg.sender].introduce = _Introduce;\r\n        return true;\r\n    }\r\n    function setUseraddress() external returns(bool){\r\n        mapProfiles[msg.sender].useraddress = msg.sender;\r\n        return true;\r\n    }\r\n}",
  "sourcePath": "D:\\goerli\\blog\\contracts\\Profile.sol",
  "compiler": {
    "name": "solc",
    "version": "0.8.0+commit.c7dfd78e.Emscripten.clang"
  },
  "schemaVersion": "3.4.14",
  "updatedAt": "2023-06-16T16:29:25.185Z",
  "networkType": "ethereum",
  "devdoc": {
    "kind": "dev",
    "methods": {},
    "version": 1
  },
  "userdoc": {
    "kind": "user",
    "methods": {},
    "version": 1
  }
}