{
  "contractName": "role_access",
  "abi": [
    {
      "inputs": [],
      "stateMutability": "nonpayable",
      "type": "constructor"
    },
    {
      "anonymous": false,
      "inputs": [
        {
          "indexed": false,
          "internalType": "address",
          "name": "",
          "type": "address"
        }
      ],
      "name": "Deploy",
      "type": "event"
    },
    {
      "anonymous": false,
      "inputs": [
        {
          "indexed": true,
          "internalType": "bytes32",
          "name": "role",
          "type": "bytes32"
        },
        {
          "indexed": true,
          "internalType": "address",
          "name": "account",
          "type": "address"
        }
      ],
      "name": "GrantRole",
      "type": "event"
    },
    {
      "anonymous": false,
      "inputs": [
        {
          "indexed": true,
          "internalType": "bytes32",
          "name": "role",
          "type": "bytes32"
        },
        {
          "indexed": true,
          "internalType": "address",
          "name": "account",
          "type": "address"
        }
      ],
      "name": "RevokeRole",
      "type": "event"
    },
    {
      "stateMutability": "payable",
      "type": "fallback"
    },
    {
      "inputs": [
        {
          "internalType": "address",
          "name": "",
          "type": "address"
        },
        {
          "internalType": "uint256",
          "name": "",
          "type": "uint256"
        }
      ],
      "name": "articles",
      "outputs": [
        {
          "internalType": "address",
          "name": "",
          "type": "address"
        }
      ],
      "stateMutability": "view",
      "type": "function"
    },
    {
      "inputs": [
        {
          "internalType": "bytes32",
          "name": "",
          "type": "bytes32"
        },
        {
          "internalType": "address",
          "name": "",
          "type": "address"
        }
      ],
      "name": "roles",
      "outputs": [
        {
          "internalType": "bool",
          "name": "",
          "type": "bool"
        }
      ],
      "stateMutability": "view",
      "type": "function"
    },
    {
      "stateMutability": "payable",
      "type": "receive"
    },
    {
      "inputs": [
        {
          "internalType": "address",
          "name": "_addr",
          "type": "address"
        }
      ],
      "name": "getArticlesNum",
      "outputs": [
        {
          "internalType": "uint256",
          "name": "",
          "type": "uint256"
        }
      ],
      "stateMutability": "view",
      "type": "function"
    },
    {
      "inputs": [
        {
          "internalType": "address",
          "name": "_addr",
          "type": "address"
        },
        {
          "internalType": "uint256",
          "name": "_index",
          "type": "uint256"
        }
      ],
      "name": "getArticleAddress",
      "outputs": [
        {
          "internalType": "address",
          "name": "",
          "type": "address"
        }
      ],
      "stateMutability": "view",
      "type": "function"
    },
    {
      "inputs": [
        {
          "internalType": "address",
          "name": "_addr",
          "type": "address"
        },
        {
          "internalType": "address",
          "name": "_Article",
          "type": "address"
        }
      ],
      "name": "PostArticle",
      "outputs": [],
      "stateMutability": "nonpayable",
      "type": "function"
    },
    {
      "inputs": [
        {
          "internalType": "bytes32",
          "name": "_role",
          "type": "bytes32"
        },
        {
          "internalType": "address",
          "name": "_account",
          "type": "address"
        }
      ],
      "name": "external_grantRole",
      "outputs": [],
      "stateMutability": "nonpayable",
      "type": "function"
    },
    {
      "inputs": [
        {
          "internalType": "bytes32",
          "name": "_role",
          "type": "bytes32"
        },
        {
          "internalType": "address",
          "name": "_account",
          "type": "address"
        }
      ],
      "name": "external_revokeRole",
      "outputs": [],
      "stateMutability": "nonpayable",
      "type": "function"
    },
    {
      "inputs": [
        {
          "internalType": "address",
          "name": "addr",
          "type": "address"
        },
        {
          "internalType": "bytes",
          "name": "data",
          "type": "bytes"
        }
      ],
      "name": "execute",
      "outputs": [],
      "stateMutability": "payable",
      "type": "function"
    },
    {
      "inputs": [
        {
          "internalType": "string",
          "name": "func",
          "type": "string"
        },
        {
          "internalType": "address",
          "name": "addr",
          "type": "address"
        }
      ],
      "name": "getCalldata",
      "outputs": [
        {
          "internalType": "bytes",
          "name": "",
          "type": "bytes"
        }
      ],
      "stateMutability": "pure",
      "type": "function"
    }
  ],
  "bytecode": "0x608060405234801561001057600080fd5b50610045604051602001610023906100f6565b604051602081830303815290604052805190602001203361004a60201b60201c565b610116565b600160008084815260200190815260200160002060008373ffffffffffffffffffffffffffffffffffffffff1673ffffffffffffffffffffffffffffffffffffffff16815260200190815260200160002060006101000a81548160ff0219169083151502179055505050565b60006100c360058361010b565b91507f41444d494e0000000000000000000000000000000000000000000000000000006000830152600582019050919050565b6000610101826100b6565b9150819050919050565b600081905092915050565b610fd9806101256000396000f3fe60806040526004361061008a5760003560e01c80636923c3ea116100595780636923c3ea1461015257806379af75341461018f578063cf3a43be146101b8578063d2b54093146101f5578063f8fc08b91461021e57610091565b80630123ee611461009357806304f1ee1f146100d05780631553d0a41461010d5780631cff79cd1461013657610091565b3661009157005b005b34801561009f57600080fd5b506100ba60048036038101906100b59190610a61565b61025b565b6040516100c79190610cf8565b60405180910390f35b3480156100dc57600080fd5b506100f760048036038101906100f291906109a8565b6102a9565b6040516101049190610d90565b60405180910390f35b34801561011957600080fd5b50610134600480360381019061012f9190610a9d565b6102f5565b005b610150600480360381019061014b9190610a0d565b610467565b005b34801561015e57600080fd5b5061017960048036038101906101749190610a61565b61051a565b6040516101869190610cf8565b60405180910390f35b34801561019b57600080fd5b506101b660048036038101906101b191906109d1565b6105c6565b005b3480156101c457600080fd5b506101df60048036038101906101da9190610ad9565b61066a565b6040516101ec9190610d2e565b60405180910390f35b34801561020157600080fd5b5061021c60048036038101906102179190610a9d565b6106f8565b005b34801561022a57600080fd5b5061024560048036038101906102409190610a9d565b61086a565b6040516102529190610d13565b60405180910390f35b6001602052816000526040600020818154811061027757600080fd5b906000526020600020016000915091509054906101000a900473ffffffffffffffffffffffffffffffffffffffff1681565b6000600160008373ffffffffffffffffffffffffffffffffffffffff1673ffffffffffffffffffffffffffffffffffffffff168152602001908152602001600020805490509050919050565b60405160200161030490610ce3565b6040516020818303038152906040528051906020012060008082815260200190815260200160002060003373ffffffffffffffffffffffffffffffffffffffff1673ffffffffffffffffffffffffffffffffffffffff16815260200190815260200160002060009054906101000a900460ff166103b6576040517f08c379a00000000000000000000000000000000000000000000000000000000081526004016103ad90610d50565b60405180910390fd5b600080600085815260200190815260200160002060008473ffffffffffffffffffffffffffffffffffffffff1673ffffffffffffffffffffffffffffffffffffffff16815260200190815260200160002060006101000a81548160ff0219169083151502179055508173ffffffffffffffffffffffffffffffffffffffff16837f76e6093c136cd7faa5a6d92b2b633f3b4595abd4a529b7a13917398355fea69460405160405180910390a3505050565b60008273ffffffffffffffffffffffffffffffffffffffff16348360405161048f9190610cb5565b60006040518083038185875af1925050503d80600081146104cc576040519150601f19603f3d011682016040523d82523d6000602084013e6104d1565b606091505b5050905080610515576040517f08c379a000000000000000000000000000000000000000000000000000000000815260040161050c90610d70565b60405180910390fd5b505050565b6000600160008473ffffffffffffffffffffffffffffffffffffffff1673ffffffffffffffffffffffffffffffffffffffff1681526020019081526020016000208281548110610593577f4e487b7100000000000000000000000000000000000000000000000000000000600052603260045260246000fd5b9060005260206000200160009054906101000a900473ffffffffffffffffffffffffffffffffffffffff16905092915050565b600160008373ffffffffffffffffffffffffffffffffffffffff1673ffffffffffffffffffffffffffffffffffffffff168152602001908152602001600020819080600181540180825580915050600190039060005260206000200160009091909190916101000a81548173ffffffffffffffffffffffffffffffffffffffff021916908373ffffffffffffffffffffffffffffffffffffffff1602179055505050565b6060828260405160240161067e9190610cf8565b6040516020818303038152906040529060405161069b9190610ccc565b60405180910390207bffffffffffffffffffffffffffffffffffffffffffffffffffffffff19166020820180517bffffffffffffffffffffffffffffffffffffffffffffffffffffffff8381831617835250505050905092915050565b60405160200161070790610ce3565b6040516020818303038152906040528051906020012060008082815260200190815260200160002060003373ffffffffffffffffffffffffffffffffffffffff1673ffffffffffffffffffffffffffffffffffffffff16815260200190815260200160002060009054906101000a900460ff166107b9576040517f08c379a00000000000000000000000000000000000000000000000000000000081526004016107b090610d50565b60405180910390fd5b600160008085815260200190815260200160002060008473ffffffffffffffffffffffffffffffffffffffff1673ffffffffffffffffffffffffffffffffffffffff16815260200190815260200160002060006101000a81548160ff0219169083151502179055508173ffffffffffffffffffffffffffffffffffffffff16837f5a06360d65acf95e98445dc834f205063424c636e65418d928cdfabc33a9539960405160405180910390a3505050565b60006020528160005260406000206020528060005260406000206000915091509054906101000a900460ff1681565b60006108ac6108a784610ddc565b610dab565b9050828152602081018484840111156108c457600080fd5b6108cf848285610edc565b509392505050565b60006108ea6108e584610e0c565b610dab565b90508281526020810184848401111561090257600080fd5b61090d848285610edc565b509392505050565b60008135905061092481610f5e565b92915050565b60008135905061093981610f75565b92915050565b600082601f83011261095057600080fd5b8135610960848260208601610899565b91505092915050565b600082601f83011261097a57600080fd5b813561098a8482602086016108d7565b91505092915050565b6000813590506109a281610f8c565b92915050565b6000602082840312156109ba57600080fd5b60006109c884828501610915565b91505092915050565b600080604083850312156109e457600080fd5b60006109f285828601610915565b9250506020610a0385828601610915565b9150509250929050565b60008060408385031215610a2057600080fd5b6000610a2e85828601610915565b925050602083013567ffffffffffffffff811115610a4b57600080fd5b610a578582860161093f565b9150509250929050565b60008060408385031215610a7457600080fd5b6000610a8285828601610915565b9250506020610a9385828601610993565b9150509250929050565b60008060408385031215610ab057600080fd5b6000610abe8582860161092a565b9250506020610acf85828601610915565b9150509250929050565b60008060408385031215610aec57600080fd5b600083013567ffffffffffffffff811115610b0657600080fd5b610b1285828601610969565b9250506020610b2385828601610915565b9150509250929050565b610b3681610e8a565b82525050565b610b4581610e9c565b82525050565b6000610b5682610e3c565b610b608185610e52565b9350610b70818560208601610eeb565b610b7981610f4d565b840191505092915050565b6000610b8f82610e3c565b610b998185610e63565b9350610ba9818560208601610eeb565b80840191505092915050565b6000610bc082610e47565b610bca8185610e7f565b9350610bda818560208601610eeb565b80840191505092915050565b6000610bf3600e83610e6e565b91507f6e6f74206175746f72697a65642e0000000000000000000000000000000000006000830152602082019050919050565b6000610c33600683610e6e565b91507f6661696c656400000000000000000000000000000000000000000000000000006000830152602082019050919050565b6000610c73600583610e7f565b91507f41444d494e0000000000000000000000000000000000000000000000000000006000830152600582019050919050565b610caf81610ed2565b82525050565b6000610cc18284610b84565b915081905092915050565b6000610cd88284610bb5565b915081905092915050565b6000610cee82610c66565b9150819050919050565b6000602082019050610d0d6000830184610b2d565b92915050565b6000602082019050610d286000830184610b3c565b92915050565b60006020820190508181036000830152610d488184610b4b565b905092915050565b60006020820190508181036000830152610d6981610be6565b9050919050565b60006020820190508181036000830152610d8981610c26565b9050919050565b6000602082019050610da56000830184610ca6565b92915050565b6000604051905081810181811067ffffffffffffffff82111715610dd257610dd1610f1e565b5b8060405250919050565b600067ffffffffffffffff821115610df757610df6610f1e565b5b601f19601f8301169050602081019050919050565b600067ffffffffffffffff821115610e2757610e26610f1e565b5b601f19601f8301169050602081019050919050565b600081519050919050565b600081519050919050565b600082825260208201905092915050565b600081905092915050565b600082825260208201905092915050565b600081905092915050565b6000610e9582610eb2565b9050919050565b60008115159050919050565b6000819050919050565b600073ffffffffffffffffffffffffffffffffffffffff82169050919050565b6000819050919050565b82818337600083830152505050565b60005b83811015610f09578082015181840152602081019050610eee565b83811115610f18576000848401525b50505050565b7f4e487b7100000000000000000000000000000000000000000000000000000000600052604160045260246000fd5b6000601f19601f8301169050919050565b610f6781610e8a565b8114610f7257600080fd5b50565b610f7e81610ea8565b8114610f8957600080fd5b50565b610f9581610ed2565b8114610fa057600080fd5b5056fea2646970667358221220891f2addd21adf3ee241163c65e164625c1f773f3a195a13a1f3ddf7d06ad60f64736f6c63430008000033",
  "immutableReferences": {},
  "source": "// SPDX-License-Identifier: MIT\r\npragma solidity ^0.8.0;\r\nimport \"./Articles.sol\";\r\n\r\ncontract role_access{\r\n\r\n    event Deploy(address);\r\n\r\n    fallback() external payable {} //\r\n    receive() external payable {}\r\n\r\n    //->->(boolean)\r\n    //bytes32addressGAS\r\n    mapping(bytes32 => mapping(address => bool)) public roles;\r\n    \r\n    // 0xdf8b4c520ffe197c5343c6f5aec59570151ef9a492f2c624fd45ddde6135ec42\r\n    bytes32 private constant ADMIN = keccak256(abi.encodePacked(\"ADMIN\"));\r\n\r\n    //0x2db9fd3d099848027c2383d0a083396f6c41510d7acfd92adc99b6cffcf31e96\r\n    bytes32 private constant USER = keccak256(abi.encodePacked(\"USER\"));\r\n\r\n    //->\r\n    mapping(address => address[]) public articles;\r\n    //\r\n    function getArticlesNum(address _addr) view external returns(uint){\r\n        return articles[_addr].length;\r\n    }\r\n    //\r\n    function getArticleAddress(address _addr, uint _index) view external returns(address){\r\n        return articles[_addr][_index];\r\n    }\r\n    \r\n    function PostArticle(address _addr,address _Article) external{\r\n        articles[_addr].push(_Article);\r\n    }\r\n    constructor() {\r\n        //\r\n        internal_grantRole(ADMIN, msg.sender);\r\n    }\r\n\r\n    event GrantRole(bytes32 indexed role, address indexed account);\r\n    event RevokeRole(bytes32 indexed role, address indexed account);\r\n\r\n    //\r\n    function internal_grantRole(bytes32 _role, address _account) internal{\r\n        roles[_role][_account] = true;\r\n    }\r\n    /**/\r\n    modifier check_ADMIN(bytes32 _role){\r\n        require(roles[_role][msg.sender],\"not autorized.\");\r\n        _;\r\n    }\r\n\r\n    function external_grantRole(bytes32 _role, address _account) external check_ADMIN(ADMIN){\r\n        roles[_role][_account] = true;\r\n        emit GrantRole(_role, _account);\r\n    }\r\n\r\n    function external_revokeRole(bytes32 _role, address _account) external check_ADMIN(ADMIN){\r\n        roles[_role][_account] = false;\r\n        emit RevokeRole(_role, _account);\r\n    }\r\n\r\n    /*-----------------------------------------------------------------*/\r\n    // \r\n    function execute(address addr,bytes memory data)  external payable{\r\n        (bool success, ) = addr.call{value: msg.value}(data);\r\n        require(success,\"failed\");\r\n    }\r\n\r\n    //functionbytecode()\r\n    function getCalldata(string memory func,address addr) external pure returns (bytes memory){\r\n        return abi.encodeWithSignature(func,addr);\r\n    }\r\n}",
  "sourcePath": "D:\\goerli\\blog\\contracts\\role_access.sol",
  "compiler": {
    "name": "solc",
    "version": "0.8.0+commit.c7dfd78e.Emscripten.clang"
  },
  "schemaVersion": "3.4.14",
  "updatedAt": "2023-06-16T16:29:21.240Z",
  "devdoc": {
    "kind": "dev",
    "methods": {},
    "version": 1
  },
  "userdoc": {
    "kind": "user",
    "methods": {},
    "version": 1
  }
}